{
  "contractName": "Notes",
  "abi": [
    {
      "anonymous": false,
      "inputs": [
        {
          "indexed": false,
          "internalType": "uint256",
          "name": "id",
          "type": "uint256"
        },
        {
          "indexed": false,
          "internalType": "string",
          "name": "title",
          "type": "string"
        },
        {
          "indexed": false,
          "internalType": "string",
          "name": "content",
          "type": "string"
        },
        {
          "indexed": false,
          "internalType": "uint256",
          "name": "timestamp",
          "type": "uint256"
        },
        {
          "indexed": false,
          "internalType": "bool",
          "name": "publicNote",
          "type": "bool"
        },
        {
          "components": [
            {
              "internalType": "uint256",
              "name": "id",
              "type": "uint256"
            },
            {
              "internalType": "string",
              "name": "username",
              "type": "string"
            },
            {
              "internalType": "string",
              "name": "password",
              "type": "string"
            }
          ],
          "indexed": false,
          "internalType": "struct Notes.User",
          "name": "user",
          "type": "tuple"
        }
      ],
      "name": "NoteCreated",
      "type": "event"
    },
    {
      "anonymous": false,
      "inputs": [
        {
          "indexed": false,
          "internalType": "uint256",
          "name": "id",
          "type": "uint256"
        }
      ],
      "name": "NoteDeleted",
      "type": "event"
    },
    {
      "anonymous": false,
      "inputs": [
        {
          "indexed": false,
          "internalType": "uint256",
          "name": "id",
          "type": "uint256"
        },
        {
          "indexed": false,
          "internalType": "string",
          "name": "username",
          "type": "string"
        }
      ],
      "name": "UserCreated",
      "type": "event"
    },
    {
      "constant": true,
      "inputs": [
        {
          "internalType": "uint256",
          "name": "",
          "type": "uint256"
        }
      ],
      "name": "allUsers",
      "outputs": [
        {
          "internalType": "uint256",
          "name": "id",
          "type": "uint256"
        },
        {
          "internalType": "string",
          "name": "username",
          "type": "string"
        },
        {
          "internalType": "string",
          "name": "password",
          "type": "string"
        }
      ],
      "payable": false,
      "stateMutability": "view",
      "type": "function"
    },
    {
      "constant": true,
      "inputs": [
        {
          "internalType": "uint256",
          "name": "",
          "type": "uint256"
        }
      ],
      "name": "allnotes",
      "outputs": [
        {
          "internalType": "uint256",
          "name": "id",
          "type": "uint256"
        },
        {
          "internalType": "string",
          "name": "title",
          "type": "string"
        },
        {
          "internalType": "string",
          "name": "content",
          "type": "string"
        },
        {
          "internalType": "uint256",
          "name": "timestamp",
          "type": "uint256"
        },
        {
          "internalType": "bool",
          "name": "publicNote",
          "type": "bool"
        },
        {
          "components": [
            {
              "internalType": "uint256",
              "name": "id",
              "type": "uint256"
            },
            {
              "internalType": "string",
              "name": "username",
              "type": "string"
            },
            {
              "internalType": "string",
              "name": "password",
              "type": "string"
            }
          ],
          "internalType": "struct Notes.User",
          "name": "user",
          "type": "tuple"
        }
      ],
      "payable": false,
      "stateMutability": "view",
      "type": "function"
    },
    {
      "constant": true,
      "inputs": [
        {
          "internalType": "uint256",
          "name": "",
          "type": "uint256"
        }
      ],
      "name": "listNotes",
      "outputs": [
        {
          "internalType": "uint256",
          "name": "id",
          "type": "uint256"
        },
        {
          "internalType": "string",
          "name": "title",
          "type": "string"
        },
        {
          "internalType": "string",
          "name": "content",
          "type": "string"
        },
        {
          "internalType": "uint256",
          "name": "timestamp",
          "type": "uint256"
        },
        {
          "internalType": "bool",
          "name": "publicNote",
          "type": "bool"
        },
        {
          "components": [
            {
              "internalType": "uint256",
              "name": "id",
              "type": "uint256"
            },
            {
              "internalType": "string",
              "name": "username",
              "type": "string"
            },
            {
              "internalType": "string",
              "name": "password",
              "type": "string"
            }
          ],
          "internalType": "struct Notes.User",
          "name": "user",
          "type": "tuple"
        }
      ],
      "payable": false,
      "stateMutability": "view",
      "type": "function"
    },
    {
      "constant": true,
      "inputs": [],
      "name": "noteCount",
      "outputs": [
        {
          "internalType": "uint256",
          "name": "",
          "type": "uint256"
        }
      ],
      "payable": false,
      "stateMutability": "view",
      "type": "function"
    },
    {
      "constant": true,
      "inputs": [],
      "name": "userCount",
      "outputs": [
        {
          "internalType": "uint256",
          "name": "",
          "type": "uint256"
        }
      ],
      "payable": false,
      "stateMutability": "view",
      "type": "function"
    },
    {
      "constant": false,
      "inputs": [
        {
          "internalType": "string",
          "name": "_username",
          "type": "string"
        },
        {
          "internalType": "string",
          "name": "_password",
          "type": "string"
        }
      ],
      "name": "createUser",
      "outputs": [],
      "payable": false,
      "stateMutability": "nonpayable",
      "type": "function"
    },
    {
      "constant": true,
      "inputs": [
        {
          "internalType": "string",
          "name": "_email",
          "type": "string"
        }
      ],
      "name": "getUserIdByEmail",
      "outputs": [
        {
          "internalType": "uint256",
          "name": "",
          "type": "uint256"
        }
      ],
      "payable": false,
      "stateMutability": "view",
      "type": "function"
    },
    {
      "constant": false,
      "inputs": [
        {
          "internalType": "string",
          "name": "_title",
          "type": "string"
        },
        {
          "internalType": "string",
          "name": "_content",
          "type": "string"
        },
        {
          "internalType": "bool",
          "name": "_publicNote",
          "type": "bool"
        },
        {
          "internalType": "uint256",
          "name": "_userId",
          "type": "uint256"
        }
      ],
      "name": "createNote",
      "outputs": [],
      "payable": false,
      "stateMutability": "nonpayable",
      "type": "function"
    },
    {
      "constant": false,
      "inputs": [
        {
          "internalType": "uint256",
          "name": "id",
          "type": "uint256"
        }
      ],
      "name": "deleteNote",
      "outputs": [],
      "payable": false,
      "stateMutability": "nonpayable",
      "type": "function"
    },
    {
      "constant": true,
      "inputs": [
        {
          "internalType": "uint256",
          "name": "_userId",
          "type": "uint256"
        }
      ],
      "name": "getUserNotes",
      "outputs": [
        {
          "components": [
            {
              "internalType": "uint256",
              "name": "id",
              "type": "uint256"
            },
            {
              "internalType": "string",
              "name": "title",
              "type": "string"
            },
            {
              "internalType": "string",
              "name": "content",
              "type": "string"
            },
            {
              "internalType": "uint256",
              "name": "timestamp",
              "type": "uint256"
            },
            {
              "internalType": "bool",
              "name": "publicNote",
              "type": "bool"
            },
            {
              "components": [
                {
                  "internalType": "uint256",
                  "name": "id",
                  "type": "uint256"
                },
                {
                  "internalType": "string",
                  "name": "username",
                  "type": "string"
                },
                {
                  "internalType": "string",
                  "name": "password",
                  "type": "string"
                }
              ],
              "internalType": "struct Notes.User",
              "name": "user",
              "type": "tuple"
            }
          ],
          "internalType": "struct Notes.Note[]",
          "name": "",
          "type": "tuple[]"
        }
      ],
      "payable": false,
      "stateMutability": "view",
      "type": "function"
    },
    {
      "constant": true,
      "inputs": [],
      "name": "getAllUsers",
      "outputs": [
        {
          "components": [
            {
              "internalType": "uint256",
              "name": "id",
              "type": "uint256"
            },
            {
              "internalType": "string",
              "name": "username",
              "type": "string"
            },
            {
              "internalType": "string",
              "name": "password",
              "type": "string"
            }
          ],
          "internalType": "struct Notes.User[]",
          "name": "",
          "type": "tuple[]"
        }
      ],
      "payable": false,
      "stateMutability": "view",
      "type": "function"
    },
    {
      "constant": true,
      "inputs": [],
      "name": "getAllNotes",
      "outputs": [
        {
          "components": [
            {
              "internalType": "uint256",
              "name": "id",
              "type": "uint256"
            },
            {
              "internalType": "string",
              "name": "title",
              "type": "string"
            },
            {
              "internalType": "string",
              "name": "content",
              "type": "string"
            },
            {
              "internalType": "uint256",
              "name": "timestamp",
              "type": "uint256"
            },
            {
              "internalType": "bool",
              "name": "publicNote",
              "type": "bool"
            },
            {
              "components": [
                {
                  "internalType": "uint256",
                  "name": "id",
                  "type": "uint256"
                },
                {
                  "internalType": "string",
                  "name": "username",
                  "type": "string"
                },
                {
                  "internalType": "string",
                  "name": "password",
                  "type": "string"
                }
              ],
              "internalType": "struct Notes.User",
              "name": "user",
              "type": "tuple"
            }
          ],
          "internalType": "struct Notes.Note[]",
          "name": "",
          "type": "tuple[]"
        }
      ],
      "payable": false,
      "stateMutability": "view",
      "type": "function"
    },
    {
      "constant": true,
      "inputs": [
        {
          "internalType": "uint256",
          "name": "id",
          "type": "uint256"
        }
      ],
      "name": "getNotes",
      "outputs": [
        {
          "components": [
            {
              "internalType": "uint256",
              "name": "id",
              "type": "uint256"
            },
            {
              "internalType": "string",
              "name": "title",
              "type": "string"
            },
            {
              "internalType": "string",
              "name": "content",
              "type": "string"
            },
            {
              "internalType": "uint256",
              "name": "timestamp",
              "type": "uint256"
            },
            {
              "internalType": "bool",
              "name": "publicNote",
              "type": "bool"
            },
            {
              "components": [
                {
                  "internalType": "uint256",
                  "name": "id",
                  "type": "uint256"
                },
                {
                  "internalType": "string",
                  "name": "username",
                  "type": "string"
                },
                {
                  "internalType": "string",
                  "name": "password",
                  "type": "string"
                }
              ],
              "internalType": "struct Notes.User",
              "name": "user",
              "type": "tuple"
            }
          ],
          "internalType": "struct Notes.Note",
          "name": "",
          "type": "tuple"
        }
      ],
      "payable": false,
      "stateMutability": "view",
      "type": "function"
    },
    {
      "constant": true,
      "inputs": [
        {
          "internalType": "uint256",
          "name": "_userId",
          "type": "uint256"
        }
      ],
      "name": "getUsers",
      "outputs": [
        {
          "internalType": "uint256",
          "name": "",
          "type": "uint256"
        },
        {
          "internalType": "string",
          "name": "",
          "type": "string"
        },
        {
          "internalType": "string",
          "name": "",
          "type": "string"
        }
      ],
      "payable": false,
      "stateMutability": "view",
      "type": "function"
    },
    {
      "constant": true,
      "inputs": [],
      "name": "getPublicNotes",
      "outputs": [
        {
          "components": [
            {
              "internalType": "uint256",
              "name": "id",
              "type": "uint256"
            },
            {
              "internalType": "string",
              "name": "title",
              "type": "string"
            },
            {
              "internalType": "string",
              "name": "content",
              "type": "string"
            },
            {
              "internalType": "uint256",
              "name": "timestamp",
              "type": "uint256"
            },
            {
              "internalType": "bool",
              "name": "publicNote",
              "type": "bool"
            },
            {
              "components": [
                {
                  "internalType": "uint256",
                  "name": "id",
                  "type": "uint256"
                },
                {
                  "internalType": "string",
                  "name": "username",
                  "type": "string"
                },
                {
                  "internalType": "string",
                  "name": "password",
                  "type": "string"
                }
              ],
              "internalType": "struct Notes.User",
              "name": "user",
              "type": "tuple"
            }
          ],
          "internalType": "struct Notes.Note[]",
          "name": "",
          "type": "tuple[]"
        }
      ],
      "payable": false,
      "stateMutability": "view",
      "type": "function"
    }
  ],
  "bytecode": "0x608060405260008055600060015534801561001957600080fd5b506127e2806100296000396000f3fe608060405234801561001057600080fd5b50600436106100f55760003560e01c8063a4a5acce11610097578063de8f430c11610066578063de8f430c146101fd578063e10be18014610205578063e2842d7914610218578063eea9099e1461022d576100f5565b8063a4a5acce146101a4578063c3fa505c146101b7578063c47177f4146101ca578063c9b9307a146101dd576100f5565b80635d73ab9a116100d35780635d73ab9a14610145578063664dbcdb1461016757806387b162b51461017c578063a2bdedf414610191576100f5565b806307973ccf146100fa578063317a4c76146101185780634de8e1d014610120575b600080fd5b610102610240565b60405161010f9190612600565b60405180910390f35b610102610246565b61013361012e366004612326565b61024c565b60405161010f96959493929190612662565b610158610153366004612326565b6104f4565b60405161010f9392919061262e565b61016f6106bb565b60405161010f91906125bd565b61018f61018a36600461222d565b610a78565b005b61015861019f366004612326565b610ba2565b61016f6101b2366004612326565b610cfd565b6101026101c53660046121f0565b6110b0565b61018f6101d8366004612326565b6110d8565b6101f06101eb366004612326565b61144f565b60405161010f91906125ef565b61016f611719565b610133610213366004612326565b611a16565b610220611a88565b60405161010f91906125ce565b61018f61023b366004612296565b611c1c565b60015481565b60005481565b6003818154811061025957fe5b9060005260206000209060080201600091509050806000015490806001018054600181600116156101000203166002900480601f01602080910402602001604051908101604052809291908181526020018280546001816001161561010002031660029004801561030b5780601f106102e05761010080835404028352916020019161030b565b820191906000526020600020905b8154815290600101906020018083116102ee57829003601f168201915b50505060028085018054604080516020601f600019610100600187161502019094169590950492830185900485028101850190915281815295969594509092509083018282801561039d5780601f106103725761010080835404028352916020019161039d565b820191906000526020600020905b81548152906001019060200180831161038057829003601f168201915b50505050600383015460048401546040805160608101825260058701805482526006880180548451602060026101006001851615026000190190931692909204601f81018390048302820183019096528581529899969860ff909616975092949193838601938301828280156104545780601f1061042957610100808354040283529160200191610454565b820191906000526020600020905b81548152906001019060200180831161043757829003601f168201915b5050509183525050600282810180546040805160206001841615610100026000190190931694909404601f810183900483028501830190915280845293810193908301828280156104e65780601f106104bb576101008083540402835291602001916104e6565b820191906000526020600020905b8154815290600101906020018083116104c957829003601f168201915b505050505081525050905086565b600060608060008411801561050b57506001548411155b6105305760405162461bcd60e51b8152600401610527906125df565b60405180910390fd5b610538611fce565b6002600186038154811061054857fe5b906000526020600020906003020160405180606001604052908160008201548152602001600182018054600181600116156101000203166002900480601f0160208091040260200160405190810160405280929190818152602001828054600181600116156101000203166002900480156106045780601f106105d957610100808354040283529160200191610604565b820191906000526020600020905b8154815290600101906020018083116105e757829003601f168201915b5050509183525050600282810180546040805160206001841615610100026000190190931694909404601f810183900483028501830190915280845293810193908301828280156106965780601f1061066b57610100808354040283529160200191610696565b820191906000526020600020905b81548152906001019060200180831161067957829003601f168201915b5050509190925250508151602083015160409093015190989297509550909350505050565b60606000805b60035481101561070857600381815481106106d857fe5b600091825260209091206004600890920201015460ff16151560011415610700576001909101905b6001016106c1565b5060608160405190808252806020026020018201604052801561074557816020015b610732611fef565b81526020019060019003908161072a5790505b5090506000805b600354811015610a6e576003818154811061076357fe5b600091825260209091206004600890920201015460ff16151560011415610a66576003818154811061079157fe5b90600052602060002090600802016040518060c001604052908160008201548152602001600182018054600181600116156101000203166002900480601f01602080910402602001604051908101604052809291908181526020018280546001816001161561010002031660029004801561084d5780601f106108225761010080835404028352916020019161084d565b820191906000526020600020905b81548152906001019060200180831161083057829003601f168201915b5050509183525050600282810180546040805160206001841615610100026000190190931694909404601f810183900483028501830190915280845293810193908301828280156108df5780601f106108b4576101008083540402835291602001916108df565b820191906000526020600020905b8154815290600101906020018083116108c257829003601f168201915b50505091835250506003820154602080830191909152600483015460ff1615156040808401919091528051606080820183526005860180548352600687018054855160026101006001841615026000190190921691909104601f810188900488028201880190965285815292909601959294909385820193918301828280156109a95780601f1061097e576101008083540402835291602001916109a9565b820191906000526020600020905b81548152906001019060200180831161098c57829003601f168201915b5050509183525050600282810180546040805160206001841615610100026000190190931694909404601f81018390048302850183019091528084529381019390830182828015610a3b5780601f10610a1057610100808354040283529160200191610a3b565b820191906000526020600020905b815481529060010190602001808311610a1e57829003601f168201915b50505050508152505081525050838381518110610a5457fe5b60209081029190910101526001909101905b60010161074c565b5090925050505b90565b6001805481019055610a88611fce565b5060408051606081018252600180548252602080830186815293830185905260028054928301808255600091909152835160039093027f405787fa12a823e0f2b7631cc41b3ba8828b3321ca811111fa75cd3aa3bb5ace81019384559451805194959194869493610b1d937f405787fa12a823e0f2b7631cc41b3ba8828b3321ca811111fa75cd3aa3bb5acf0192019061202c565b5060408201518051610b3991600284019160209091019061202c565b50505050600154600584604051610b5091906125b1565b9081526020016040518091039020819055507fee305ea110dac8054a0415771cedeb3372a69ef1c3916abb2f5e1b3658d77c0e60015484604051610b9592919061260e565b60405180910390a1505050565b60028181548110610baf57fe5b9060005260206000209060030201600091509050806000015490806001018054600181600116156101000203166002900480601f016020809104026020016040519081016040528092919081815260200182805460018160011615610100020316600290048015610c615780601f10610c3657610100808354040283529160200191610c61565b820191906000526020600020905b815481529060010190602001808311610c4457829003601f168201915b50505060028085018054604080516020601f6000196101006001871615020190941695909504928301859004850281018501909152818152959695945090925090830182828015610cf35780601f10610cc857610100808354040283529160200191610cf3565b820191906000526020600020905b815481529060010190602001808311610cd657829003601f168201915b5050505050905083565b60606000805b600354811015610d45578360038281548110610d1b57fe5b9060005260206000209060080201600501600001541415610d3d576001909101905b600101610d03565b50606081604051908082528060200260200182016040528015610d8257816020015b610d6f611fef565b815260200190600190039081610d675790505b5090506000805b6003548110156110a6578560038281548110610da157fe5b906000526020600020906008020160050160000154141561109e5760038181548110610dc957fe5b90600052602060002090600802016040518060c001604052908160008201548152602001600182018054600181600116156101000203166002900480601f016020809104026020016040519081016040528092919081815260200182805460018160011615610100020316600290048015610e855780601f10610e5a57610100808354040283529160200191610e85565b820191906000526020600020905b815481529060010190602001808311610e6857829003601f168201915b5050509183525050600282810180546040805160206001841615610100026000190190931694909404601f81018390048302850183019091528084529381019390830182828015610f175780601f10610eec57610100808354040283529160200191610f17565b820191906000526020600020905b815481529060010190602001808311610efa57829003601f168201915b50505091835250506003820154602080830191909152600483015460ff1615156040808401919091528051606080820183526005860180548352600687018054855160026101006001841615026000190190921691909104601f81018890048802820188019096528581529290960195929490938582019391830182828015610fe15780601f10610fb657610100808354040283529160200191610fe1565b820191906000526020600020905b815481529060010190602001808311610fc457829003601f168201915b5050509183525050600282810180546040805160206001841615610100026000190190931694909404601f810183900483028501830190915280845293810193908301828280156110735780601f1061104857610100808354040283529160200191611073565b820191906000526020600020905b81548152906001019060200180831161105657829003601f168201915b5050505050815250508152505083838151811061108c57fe5b60209081029190910101526001909101905b600101610d89565b5090949350505050565b60006005826040516110c291906125b1565b9081526020016040518091039020549050919050565b60001981015b60016000540381101561131e57600381600101815481106110fb57fe5b90600052602060002090600802016003828154811061111657fe5b906000526020600020906008020160008201548160000155600182018160010190805460018160011615610100020316600290046111559291906120aa565b506002828101805461117a9284810192916000196101006001831615020116046120aa565b5060038281015490820155600480830154908201805460ff191660ff909216151591909117905560058083018054918301918255600680850180549293926111d89286019190600261010060018316150260001901909116046120aa565b50600282810180546111fd9284810192916000196101006001831615020116046120aa565b5050509050506003816001018154811061121357fe5b90600052602060002090600802016004600083815260200190815260200160002060008201548160000155600182018160010190805460018160011615610100020316600290046112659291906120aa565b506002828101805461128a9284810192916000196101006001831615020116046120aa565b5060038281015490820155600480830154908201805460ff191660ff909216151591909117905560058083018054918301918255600680850180549293926112e89286019190600261010060018316150260001901909116046120aa565b506002828101805461130d9284810192916000196101006001831615020116046120aa565b5050600190930192506110de915050565b50600380548061132a57fe5b60008281526020812060086000199093019283020181815590611350600183018261211f565b61135e60028301600061211f565b60006003830181905560048301805460ff191690556005830181815590611388600685018261211f565b61139660028301600061211f565b50505091555060008054600019018152600460205260408120818155906113c0600183018261211f565b6113ce60028301600061211f565b60006003830181905560048301805460ff1916905560058301818155906113f8600685018261211f565b61140660028301600061211f565b50506000805460001901905550506040517f89af6ba62ab348dc535a3187c267090f834c868a3820cd552a7110c3dc3eedb890611444908390612600565b60405180910390a150565b611457611fef565b600460008381526020019081526020016000206040518060c001604052908160008201548152602001600182018054600181600116156101000203166002900480601f0160208091040260200160405190810160405280929190818152602001828054600181600116156101000203166002900480156115185780601f106114ed57610100808354040283529160200191611518565b820191906000526020600020905b8154815290600101906020018083116114fb57829003601f168201915b5050509183525050600282810180546040805160206001841615610100026000190190931694909404601f810183900483028501830190915280845293810193908301828280156115aa5780601f1061157f576101008083540402835291602001916115aa565b820191906000526020600020905b81548152906001019060200180831161158d57829003601f168201915b50505091835250506003820154602080830191909152600483015460ff1615156040808401919091528051606080820183526005860180548352600687018054855160026101006001841615026000190190921691909104601f810188900488028201880190965285815292909601959294909385820193918301828280156116745780601f1061164957610100808354040283529160200191611674565b820191906000526020600020905b81548152906001019060200180831161165757829003601f168201915b5050509183525050600282810180546040805160206001841615610100026000190190931694909404601f810183900483028501830190915280845293810193908301828280156117065780601f106116db57610100808354040283529160200191611706565b820191906000526020600020905b8154815290600101906020018083116116e957829003601f168201915b5050509190925250505090525092915050565b60606003805480602002602001604051908101604052809291908181526020016000905b82821015611a0d57838290600052602060002090600802016040518060c001604052908160008201548152602001600182018054600181600116156101000203166002900480601f0160208091040260200160405190810160405280929190818152602001828054600181600116156101000203166002900480156118035780601f106117d857610100808354040283529160200191611803565b820191906000526020600020905b8154815290600101906020018083116117e657829003601f168201915b5050509183525050600282810180546040805160206001841615610100026000190190931694909404601f810183900483028501830190915280845293810193908301828280156118955780601f1061186a57610100808354040283529160200191611895565b820191906000526020600020905b81548152906001019060200180831161187857829003601f168201915b50505091835250506003820154602080830191909152600483015460ff1615156040808401919091528051606080820183526005860180548352600687018054855160026101006001841615026000190190921691909104601f8101889004880282018801909652858152929096019592949093858201939183018282801561195f5780601f106119345761010080835404028352916020019161195f565b820191906000526020600020905b81548152906001019060200180831161194257829003601f168201915b5050509183525050600282810180546040805160206001841615610100026000190190931694909404601f810183900483028501830190915280845293810193908301828280156119f15780601f106119c6576101008083540402835291602001916119f1565b820191906000526020600020905b8154815290600101906020018083116119d457829003601f168201915b505050505081525050815250508152602001906001019061173d565b50505050905090565b6004602090815260009182526040918290208054600180830180548651600293821615610100026000190190911692909204601f81018690048602830186019096528582529194929390929083018282801561030b5780601f106102e05761010080835404028352916020019161030b565b60606002805480602002602001604051908101604052809291908181526020016000905b82821015611a0d578382906000526020600020906003020160405180606001604052908160008201548152602001600182018054600181600116156101000203166002900480601f016020809104026020016040519081016040528092919081815260200182805460018160011615610100020316600290048015611b725780601f10611b4757610100808354040283529160200191611b72565b820191906000526020600020905b815481529060010190602001808311611b5557829003601f168201915b5050509183525050600282810180546040805160206001841615610100026000190190931694909404601f81018390048302850183019091528084529381019390830182828015611c045780601f10611bd957610100808354040283529160200191611c04565b820191906000526020600020905b815481529060010190602001808311611be757829003601f168201915b50505050508152505081526020019060010190611aac565b600080546001019055611c2d611fce565b60026001830381548110611c3d57fe5b906000526020600020906003020160405180606001604052908160008201548152602001600182018054600181600116156101000203166002900480601f016020809104026020016040519081016040528092919081815260200182805460018160011615610100020316600290048015611cf95780601f10611cce57610100808354040283529160200191611cf9565b820191906000526020600020905b815481529060010190602001808311611cdc57829003601f168201915b5050509183525050600282810180546040805160206001841615610100026000190190931694909404601f81018390048302850183019091528084529381019390830182828015611d8b5780601f10611d6057610100808354040283529160200191611d8b565b820191906000526020600020905b815481529060010190602001808311611d6e57829003601f168201915b5050505050815250509050611d9e611fef565b506040805160c0810182526000805480835260208084018a81528486018a9052426060860152881515608086015260a085018790529183526004815293909120825181559051805192938493611dfa926001850192019061202c565b5060408201518051611e1691600284019160209091019061202c565b5060608201516003820155608082015160048201805460ff191691151591909117905560a08201518051600583019081556020808301518051611e5f926006870192019061202c565b5060408201518051611e7b91600284019160209091019061202c565b50506003805460018101808355600092909252855160089091027fc2575a0e9e593c00f959f8c92f12db2869c3395a3b0502d05e2516446f71f85b81019182556020808801518051949750889650929450611efc937fc2575a0e9e593c00f959f8c92f12db2869c3395a3b0502d05e2516446f71f85c90920192019061202c565b5060408201518051611f1891600284019160209091019061202c565b5060608201516003820155608082015160048201805460ff191691151591909117905560a08201518051600583019081556020808301518051611f61926006870192019061202c565b5060408201518051611f7d91600284019160209091019061202c565b5050505050507f7d3d3a9e04175494654f3ff3de6ec6112aa9c8cb3d111520c3e1420615d7b0aa6000548787428887604051611fbe96959493929190612662565b60405180910390a1505050505050565b60405180606001604052806000815260200160608152602001606081525090565b6040518060c0016040528060008152602001606081526020016060815260200160008152602001600015158152602001612027611fce565b905290565b828054600181600116156101000203166002900490600052602060002090601f016020900481019282601f1061206d57805160ff191683800117855561209a565b8280016001018555821561209a579182015b8281111561209a57825182559160200191906001019061207f565b506120a6929150612166565b5090565b828054600181600116156101000203166002900490600052602060002090601f016020900481019282601f106120e3578054855561209a565b8280016001018555821561209a57600052602060002091601f016020900482015b8281111561209a578254825591600101919060010190612104565b50805460018160011615610100020316600290046000825580601f106121455750612163565b601f0160209004906000526020600020908101906121639190612166565b50565b610a7591905b808211156120a6576000815560010161216c565b803561218b81612782565b92915050565b600082601f8301126121a257600080fd5b81356121b56121b0826126f7565b6126d0565b915080825260208301602083018583830111156121d157600080fd5b6121dc83828461273c565b50505092915050565b803561218b81612796565b60006020828403121561220257600080fd5b813567ffffffffffffffff81111561221957600080fd5b61222584828501612191565b949350505050565b6000806040838503121561224057600080fd5b823567ffffffffffffffff81111561225757600080fd5b61226385828601612191565b925050602083013567ffffffffffffffff81111561228057600080fd5b61228c85828601612191565b9150509250929050565b600080600080608085870312156122ac57600080fd5b843567ffffffffffffffff8111156122c357600080fd5b6122cf87828801612191565b945050602085013567ffffffffffffffff8111156122ec57600080fd5b6122f887828801612191565b935050604061230987828801612180565b925050606061231a878288016121e5565b91505092959194509250565b60006020828403121561233857600080fd5b600061222584846121e5565b600061235083836124d3565b9392505050565b60006123508383612562565b600061236e82612725565b6123788185612729565b93508360208202850161238a8561271f565b8060005b858110156123c457848403895281516123a78582612344565b94506123b28361271f565b60209a909a019992505060010161238e565b5091979650505050505050565b60006123dc82612725565b6123e68185612729565b9350836020820285016123f88561271f565b8060005b858110156123c457848403895281516124158582612357565b94506124208361271f565b60209a909a01999250506001016123fc565b61243b81612737565b82525050565b600061244c82612725565b6124568185612729565b9350612466818560208601612748565b61246f81612778565b9093019392505050565b600061248482612725565b61248e8185612732565b935061249e818560208601612748565b9290920192915050565b60006124b5600f83612729565b6e125b9d985b1a59081d5cd95c881251608a1b815260200192915050565b805160009060c08401906124e785826125a8565b50602083015184820360208601526124ff8282612441565b915050604083015184820360408601526125198282612441565b915050606083015161252e60608601826125a8565b5060808301516125416080860182612432565b5060a083015184820360a08601526125598282612562565b95945050505050565b8051600090606084019061257685826125a8565b506020830151848203602086015261258e8282612441565b915050604083015184820360408601526125598282612441565b61243b81610a75565b60006123508284612479565b602080825281016123508184612363565b6020808252810161235081846123d1565b6020808252810161218b816124a8565b6020808252810161235081846124d3565b6020810161218b82846125a8565b6040810161261c82856125a8565b81810360208301526122258184612441565b6060810161263c82866125a8565b818103602083015261264e8185612441565b905081810360408301526125598184612441565b60c0810161267082896125a8565b81810360208301526126828188612441565b905081810360408301526126968187612441565b90506126a560608301866125a8565b6126b26080830185612432565b81810360a08301526126c48184612562565b98975050505050505050565b60405181810167ffffffffffffffff811182821017156126ef57600080fd5b604052919050565b600067ffffffffffffffff82111561270e57600080fd5b506020601f91909101601f19160190565b60200190565b5190565b90815260200190565b919050565b151590565b82818337506000910152565b60005b8381101561276357818101518382015260200161274b565b83811115612772576000848401525b50505050565b601f01601f191690565b61278b81612737565b811461216357600080fd5b61278b81610a7556fea365627a7a723158205ad456d5af09cb8238c1832bb7a7810ac312450f46f90a7dc67f862e35c23ce86c6578706572696d656e74616cf564736f6c63430005100040",
  "source": "pragma solidity ^0.5.0;\r\n\r\npragma experimental ABIEncoderV2;\r\n\r\ncontract Notes {\r\n\r\n    uint public noteCount = 0;\r\n    uint public userCount = 0;\r\n\r\n    struct User {\r\n        uint id;\r\n        string username;\r\n        string password;\r\n    }\r\n\r\n    struct Note {\r\n        uint id;\r\n        string title;\r\n        string content;\r\n        uint256 timestamp;\r\n        bool publicNote;\r\n        User user;\r\n    }\r\n\r\n    User[] public allUsers;\r\n    Note[] public allnotes;\r\n    mapping(uint => Note) public listNotes;\r\n\r\n    event NoteCreated(\r\n        uint id,\r\n        string title,\r\n        string content,\r\n        uint256 timestamp,\r\n        bool publicNote,\r\n        User user\r\n    );\r\n\r\n    event NoteDeleted(uint id);\r\n    event UserCreated(uint id, string username);\r\n\r\n    mapping(string => uint) private emailToUserId;\r\n\r\n    function createUser(string memory _username, string memory _password) public {\r\n        userCount++;\r\n        User memory newUser = User(userCount, _username, _password);\r\n        allUsers.push(newUser);\r\n        emailToUserId[_username] = userCount; // Store the mapping\r\n        emit UserCreated(userCount, _username);\r\n    }\r\n\r\n    function getUserIdByEmail(string memory _email) public view returns (uint) {\r\n        return emailToUserId[_email];\r\n    }\r\n\r\n\r\n    function createNote(\r\n        string memory _title,\r\n        string memory _content,\r\n        bool _publicNote,\r\n        uint _userId\r\n    ) public {\r\n        noteCount++;\r\n        User memory noteUser = allUsers[_userId - 1];\r\n        Note memory newNote = Note(\r\n            noteCount,\r\n            _title,\r\n            _content,\r\n            now,\r\n            _publicNote,\r\n            noteUser\r\n        );\r\n        listNotes[noteCount] = newNote;\r\n        allnotes.push(newNote);\r\n        emit NoteCreated(\r\n            noteCount,\r\n            _title,\r\n            _content,\r\n            now,\r\n            _publicNote,\r\n            noteUser\r\n        );\r\n    }\r\n\r\n    \r\n\r\n    function deleteNote(uint256 id) public {\r\n        for (uint256 i = id - 1; i < noteCount - 1; i++) {\r\n            allnotes[i] = allnotes[i + 1];\r\n            listNotes[i] = allnotes[i + 1];\r\n        }\r\n        allnotes.pop();\r\n        delete listNotes[noteCount - 1];\r\n        noteCount--;\r\n        emit NoteDeleted(id);\r\n    }\r\n\r\n    function getUserNotes(uint _userId) external view returns (Note[] memory) {\r\n    uint256 userNoteCount = 0;\r\n\r\n    for (uint256 i = 0; i < allnotes.length; i++) {\r\n        if (allnotes[i].user.id == _userId) {\r\n            userNoteCount++;\r\n        }\r\n    }\r\n\r\n    Note[] memory notes = new Note[](userNoteCount);\r\n    uint256 index = 0;\r\n\r\n    for (uint256 i = 0; i < allnotes.length; i++) {\r\n        if (allnotes[i].user.id == _userId) {\r\n            notes[index] = allnotes[i];\r\n            index++;\r\n        }\r\n    }\r\n\r\n    return notes;\r\n}\r\n\r\n    function getAllUsers() external view returns (User[] memory) {\r\n        return allUsers;\r\n    }\r\n\r\n    function getAllNotes() external view returns (Note[] memory) {\r\n        return allnotes;\r\n    }\r\n\r\n    function getNotes(uint id) external view returns (Note memory) {\r\n        return listNotes[id];\r\n    }\r\n\r\n    function getUsers(uint _userId) external view returns (uint, string memory, string memory) {\r\n        require(_userId > 0 && _userId <= userCount, \"Invalid user ID\");\r\n        User memory user = allUsers[_userId - 1];\r\n        return (user.id, user.username, user.password);\r\n    }\r\n\r\n    function getPublicNotes() external view returns (Note[] memory) {\r\n        uint256 publicCount = 0;\r\n\r\n        for (uint256 i = 0; i < allnotes.length; i++) {\r\n            if (allnotes[i].publicNote == true) {\r\n                publicCount++;\r\n            }\r\n        }\r\n\r\n        Note[] memory publicNotes = new Note[](publicCount);\r\n        uint256 index = 0;\r\n\r\n        for (uint256 i = 0; i < allnotes.length; i++) {\r\n            if (allnotes[i].publicNote == true) {\r\n                publicNotes[index] = allnotes[i];\r\n                index++;\r\n            }\r\n        }\r\n\r\n        return publicNotes;\r\n    }\r\n}",
  "sourcePath": "C:\\Users\\Sanyukta\\Desktop\\SEMESTER - 7\\BCT\\IA\\BCT-IA1\\bct-ia-noteapp\\contracts\\Notes.sol",
  "compiler": {
    "name": "solc",
    "version": "0.5.16+commit.9c3226ce.Emscripten.clang"
  },
  "schemaVersion": "3.4.15",
  "updatedAt": "2023-08-18T06:32:34.085Z",
  "networkType": "ethereum",
  "devdoc": {
    "methods": {}
  },
  "userdoc": {
    "methods": {}
  }
}