{
  "contractName": "Notes",
  "abi": [
    {
      "inputs": [],
      "payable": false,
      "stateMutability": "nonpayable",
      "type": "constructor"
    },
    {
      "anonymous": false,
      "inputs": [
        {
          "indexed": false,
          "internalType": "uint256",
          "name": "id",
          "type": "uint256"
        },
        {
          "indexed": false,
          "internalType": "string",
          "name": "title",
          "type": "string"
        },
        {
          "indexed": false,
          "internalType": "string",
          "name": "content",
          "type": "string"
        },
        {
          "indexed": false,
          "internalType": "uint256",
          "name": "timestamp",
          "type": "uint256"
        },
        {
          "indexed": false,
          "internalType": "bool",
          "name": "publicNote",
          "type": "bool"
        }
      ],
      "name": "NoteCreated",
      "type": "event"
    },
    {
      "anonymous": false,
      "inputs": [
        {
          "indexed": false,
          "internalType": "uint256",
          "name": "id",
          "type": "uint256"
        }
      ],
      "name": "NoteDeleted",
      "type": "event"
    },
    {
      "constant": true,
      "inputs": [
        {
          "internalType": "uint256",
          "name": "",
          "type": "uint256"
        }
      ],
      "name": "allnotes",
      "outputs": [
        {
          "internalType": "uint256",
          "name": "id",
          "type": "uint256"
        },
        {
          "internalType": "string",
          "name": "title",
          "type": "string"
        },
        {
          "internalType": "string",
          "name": "content",
          "type": "string"
        },
        {
          "internalType": "uint256",
          "name": "timestamp",
          "type": "uint256"
        },
        {
          "internalType": "bool",
          "name": "publicNote",
          "type": "bool"
        }
      ],
      "payable": false,
      "stateMutability": "view",
      "type": "function"
    },
    {
      "constant": true,
      "inputs": [
        {
          "internalType": "uint256",
          "name": "",
          "type": "uint256"
        }
      ],
      "name": "listNotes",
      "outputs": [
        {
          "internalType": "uint256",
          "name": "id",
          "type": "uint256"
        },
        {
          "internalType": "string",
          "name": "title",
          "type": "string"
        },
        {
          "internalType": "string",
          "name": "content",
          "type": "string"
        },
        {
          "internalType": "uint256",
          "name": "timestamp",
          "type": "uint256"
        },
        {
          "internalType": "bool",
          "name": "publicNote",
          "type": "bool"
        }
      ],
      "payable": false,
      "stateMutability": "view",
      "type": "function"
    },
    {
      "constant": true,
      "inputs": [],
      "name": "noteCount",
      "outputs": [
        {
          "internalType": "uint256",
          "name": "",
          "type": "uint256"
        }
      ],
      "payable": false,
      "stateMutability": "view",
      "type": "function"
    },
    {
      "constant": false,
      "inputs": [
        {
          "internalType": "string",
          "name": "_title",
          "type": "string"
        },
        {
          "internalType": "string",
          "name": "_content",
          "type": "string"
        },
        {
          "internalType": "bool",
          "name": "_publicNote",
          "type": "bool"
        }
      ],
      "name": "createNote",
      "outputs": [],
      "payable": false,
      "stateMutability": "nonpayable",
      "type": "function"
    },
    {
      "constant": false,
      "inputs": [
        {
          "internalType": "uint256",
          "name": "id",
          "type": "uint256"
        }
      ],
      "name": "deleteNote",
      "outputs": [],
      "payable": false,
      "stateMutability": "nonpayable",
      "type": "function"
    },
    {
      "constant": true,
      "inputs": [],
      "name": "getAllNotes",
      "outputs": [
        {
          "components": [
            {
              "internalType": "uint256",
              "name": "id",
              "type": "uint256"
            },
            {
              "internalType": "string",
              "name": "title",
              "type": "string"
            },
            {
              "internalType": "string",
              "name": "content",
              "type": "string"
            },
            {
              "internalType": "uint256",
              "name": "timestamp",
              "type": "uint256"
            },
            {
              "internalType": "bool",
              "name": "publicNote",
              "type": "bool"
            }
          ],
          "internalType": "struct Notes.Note[]",
          "name": "",
          "type": "tuple[]"
        }
      ],
      "payable": false,
      "stateMutability": "view",
      "type": "function"
    },
    {
      "constant": true,
      "inputs": [
        {
          "internalType": "uint256",
          "name": "id",
          "type": "uint256"
        }
      ],
      "name": "getNotes",
      "outputs": [
        {
          "components": [
            {
              "internalType": "uint256",
              "name": "id",
              "type": "uint256"
            },
            {
              "internalType": "string",
              "name": "title",
              "type": "string"
            },
            {
              "internalType": "string",
              "name": "content",
              "type": "string"
            },
            {
              "internalType": "uint256",
              "name": "timestamp",
              "type": "uint256"
            },
            {
              "internalType": "bool",
              "name": "publicNote",
              "type": "bool"
            }
          ],
          "internalType": "struct Notes.Note",
          "name": "",
          "type": "tuple"
        }
      ],
      "payable": false,
      "stateMutability": "view",
      "type": "function"
    },
    {
      "constant": true,
      "inputs": [],
      "name": "getPublicNotes",
      "outputs": [
        {
          "components": [
            {
              "internalType": "uint256",
              "name": "id",
              "type": "uint256"
            },
            {
              "internalType": "string",
              "name": "title",
              "type": "string"
            },
            {
              "internalType": "string",
              "name": "content",
              "type": "string"
            },
            {
              "internalType": "uint256",
              "name": "timestamp",
              "type": "uint256"
            },
            {
              "internalType": "bool",
              "name": "publicNote",
              "type": "bool"
            }
          ],
          "internalType": "struct Notes.Note[]",
          "name": "",
          "type": "tuple[]"
        }
      ],
      "payable": false,
      "stateMutability": "view",
      "type": "function"
    }
  ],
  "bytecode": "0x6080604052600080553480156200001557600080fd5b5062000066604051806040016040528060058152602001645469746c6560d81b8152506040518060400160405280600781526020016610dbdb9d195b9d60ca1b81525060016200006c60201b60201c565b62000405565b6000805460010190556200007f62000220565b506040805160a08101825260008054808352602080840188815284860188905242606086015286151560808601529183526002815293909120825181559051805192938493620000d6926001850192019062000251565b5060408201518051620000f491600284019160209091019062000251565b50606082015160038201556080909101516004909101805460ff19169115159190911790556001805480820180835560009290925282517fb10e2d527612073b26eecdfd717e6a320cf44b4afac2b0732d9fcbe2b7fa0cf660059092029182019081556020808501518051869462000193937fb10e2d527612073b26eecdfd717e6a320cf44b4afac2b0732d9fcbe2b7fa0cf790910192019062000251565b5060408201518051620001b191600284019160209091019062000251565b50606082015160038201556080909101516004909101805460ff1916911515919091179055506000546040517f2e344815cb96a61cfacb6a48fa0123f31cbb1c54ff608ed7d102709214f92bdd916200021291879087904290889062000352565b60405180910390a150505050565b6040518060a00160405280600081526020016060815260200160608152602001600081526020016000151581525090565b828054600181600116156101000203166002900490600052602060002090601f016020900481019282601f106200029457805160ff1916838001178555620002c4565b82800160010185558215620002c4579182015b82811115620002c4578251825591602001919060010190620002a7565b50620002d2929150620002d6565b5090565b620002f391905b80821115620002d25760008155600101620002dd565b90565b6200030181620003c3565b82525050565b60006200031482620003b6565b620003208185620003ba565b935062000332818560208601620003c8565b6200033d81620003fb565b9093019392505050565b6200030181620002f3565b60a0810162000362828862000347565b818103602083015262000376818762000307565b905081810360408301526200038c818662000307565b90506200039d606083018562000347565b620003ac6080830184620002f6565b9695505050505050565b5190565b90815260200190565b151590565b60005b83811015620003e5578181015183820152602001620003cb565b83811115620003f5576000848401525b50505050565b601f01601f191690565b61125e80620004156000396000f3fe608060405234801561001057600080fd5b50600436106100885760003560e01c8063c47177f41161005b578063c47177f4146100f9578063c9b9307a1461010c578063de8f430c1461012c578063e10be1801461013457610088565b8063317a4c761461008d5780634de8e1d0146100ab578063664dbcdb146100cf578063769f4ab6146100e4575b600080fd5b610095610147565b6040516100a291906110e9565b60405180910390f35b6100be6100b9366004610f5a565b61014d565b6040516100a29594939291906110f7565b6100d76102b8565b6040516100a291906110c7565b6100f76100f2366004610ede565b610531565b005b6100f7610107366004610f5a565b6106d9565b61011f61011a366004610f5a565b610939565b6040516100a291906110d8565b6100d7610abd565b6100be610142366004610f5a565b610c79565b60005481565b6001818154811061015a57fe5b9060005260206000209060050201600091509050806000015490806001018054600181600116156101000203166002900480601f01602080910402602001604051908101604052809291908181526020018280546001816001161561010002031660029004801561020c5780601f106101e15761010080835404028352916020019161020c565b820191906000526020600020905b8154815290600101906020018083116101ef57829003601f168201915b50505060028085018054604080516020601f600019610100600187161502019094169590950492830185900485028101850190915281815295969594509092509083018282801561029e5780601f106102735761010080835404028352916020019161029e565b820191906000526020600020905b81548152906001019060200180831161028157829003601f168201915b50505050600383015460049093015491929160ff16905085565b60606000805b60015481101561030557600181815481106102d557fe5b600091825260209091206004600590920201015460ff161515600114156102fd576001909101905b6001016102be565b5060608160405190808252806020026020018201604052801561034257816020015b61032f610ce9565b8152602001906001900390816103275790505b5090506000805b600154811015610527576001818154811061036057fe5b600091825260209091206004600590920201015460ff1615156001141561051f576001818154811061038e57fe5b90600052602060002090600502016040518060a001604052908160008201548152602001600182018054600181600116156101000203166002900480601f01602080910402602001604051908101604052809291908181526020018280546001816001161561010002031660029004801561044a5780601f1061041f5761010080835404028352916020019161044a565b820191906000526020600020905b81548152906001019060200180831161042d57829003601f168201915b5050509183525050600282810180546040805160206001841615610100026000190190931694909404601f810183900483028501830190915280845293810193908301828280156104dc5780601f106104b1576101008083540402835291602001916104dc565b820191906000526020600020905b8154815290600101906020018083116104bf57829003601f168201915b50505091835250506003820154602082015260049091015460ff161515604090910152835184908490811061050d57fe5b60209081029190910101526001909101905b600101610349565b5090925050505b90565b600080546001019055610542610ce9565b506040805160a081018252600080548083526020808401888152848601889052426060860152861515608086015291835260028152939091208251815590518051929384936105979260018501920190610d1a565b50604082015180516105b3916002840191602090910190610d1a565b50606082015160038201556080909101516004909101805460ff19169115159190911790556001805480820180835560009290925282517fb10e2d527612073b26eecdfd717e6a320cf44b4afac2b0732d9fcbe2b7fa0cf6600590920291820190815560208085015180518694610650937fb10e2d527612073b26eecdfd717e6a320cf44b4afac2b0732d9fcbe2b7fa0cf7909101920190610d1a565b506040820151805161066c916002840191602090910190610d1a565b50606082015160038201556080909101516004909101805460ff1916911515919091179055506000546040517f2e344815cb96a61cfacb6a48fa0123f31cbb1c54ff608ed7d102709214f92bdd916106cb9187908790429088906110f7565b60405180910390a150505050565b60001981015b60016000540381101561085657600181600101815481106106fc57fe5b90600052602060002090600502016001828154811061071757fe5b90600052602060002090600502016000820154816000015560018201816001019080546001816001161561010002031660029004610756929190610d98565b506002828101805461077b928481019291600019610100600183161502011604610d98565b50600382810154908201556004918201549101805460ff191660ff9092161515919091179055600180548282019081106107b157fe5b9060005260206000209060050201600260008381526020019081526020016000206000820154816000015560018201816001019080546001816001161561010002031660029004610803929190610d98565b5060028281018054610828928481019291600019610100600183161502011604610d98565b50600382810154908201556004918201549101805460ff191660ff90921615159190911790556001016106df565b50600180548061086257fe5b600082815260208120600560001990930192830201818155906108886001830182610e0d565b610896600283016000610e0d565b506000600382018190556004909101805460ff1916905591558054600019018152600260205260408120818155906108d16001830182610e0d565b6108df600283016000610e0d565b506000600382018190556004909101805460ff1916905580546000190190556040517f89af6ba62ab348dc535a3187c267090f834c868a3820cd552a7110c3dc3eedb89061092e9083906110e9565b60405180910390a150565b610941610ce9565b600260008381526020019081526020016000206040518060a001604052908160008201548152602001600182018054600181600116156101000203166002900480601f016020809104026020016040519081016040528092919081815260200182805460018160011615610100020316600290048015610a025780601f106109d757610100808354040283529160200191610a02565b820191906000526020600020905b8154815290600101906020018083116109e557829003601f168201915b5050509183525050600282810180546040805160206001841615610100026000190190931694909404601f81018390048302850183019091528084529381019390830182828015610a945780601f10610a6957610100808354040283529160200191610a94565b820191906000526020600020905b815481529060010190602001808311610a7757829003601f168201915b50505091835250506003820154602082015260049091015460ff16151560409091015292915050565b60606001805480602002602001604051908101604052809291908181526020016000905b82821015610c7057838290600052602060002090600502016040518060a001604052908160008201548152602001600182018054600181600116156101000203166002900480601f016020809104026020016040519081016040528092919081815260200182805460018160011615610100020316600290048015610ba75780601f10610b7c57610100808354040283529160200191610ba7565b820191906000526020600020905b815481529060010190602001808311610b8a57829003601f168201915b5050509183525050600282810180546040805160206001841615610100026000190190931694909404601f81018390048302850183019091528084529381019390830182828015610c395780601f10610c0e57610100808354040283529160200191610c39565b820191906000526020600020905b815481529060010190602001808311610c1c57829003601f168201915b5050509183525050600382015460208083019190915260049092015460ff1615156040909101529082526001929092019101610ae1565b50505050905090565b60026020818152600092835260409283902080546001808301805487519281161561010002600019011695909504601f810185900485028201850190965285815290949193909290919083018282801561020c5780601f106101e15761010080835404028352916020019161020c565b6040518060a00160405280600081526020016060815260200160608152602001600081526020016000151581525090565b828054600181600116156101000203166002900490600052602060002090601f016020900481019282601f10610d5b57805160ff1916838001178555610d88565b82800160010185558215610d88579182015b82811115610d88578251825591602001919060010190610d6d565b50610d94929150610e54565b5090565b828054600181600116156101000203166002900490600052602060002090601f016020900481019282601f10610dd15780548555610d88565b82800160010185558215610d8857600052602060002091601f016020900482015b82811115610d88578254825591600101919060010190610df2565b50805460018160011615610100020316600290046000825580601f10610e335750610e51565b601f016020900490600052602060002090810190610e519190610e54565b50565b61052e91905b80821115610d945760008155600101610e5a565b8035610e79816111fe565b92915050565b600082601f830112610e9057600080fd5b8135610ea3610e9e82611178565b611151565b91508082526020830160208301858383011115610ebf57600080fd5b610eca8382846111b8565b50505092915050565b8035610e7981611212565b600080600060608486031215610ef357600080fd5b833567ffffffffffffffff811115610f0a57600080fd5b610f1686828701610e7f565b935050602084013567ffffffffffffffff811115610f3357600080fd5b610f3f86828701610e7f565b9250506040610f5086828701610e6e565b9150509250925092565b600060208284031215610f6c57600080fd5b6000610f788484610ed3565b949350505050565b6000610f8c8383611048565b9392505050565b6000610f9e826111a6565b610fa881856111aa565b935083602082028501610fba856111a0565b8060005b85811015610ff45784840389528151610fd78582610f80565b9450610fe2836111a0565b60209a909a0199925050600101610fbe565b5091979650505050505050565b61100a816111b3565b82525050565b600061101b826111a6565b61102581856111aa565b93506110358185602086016111c4565b61103e816111f4565b9093019392505050565b805160009060a084019061105c85826110be565b50602083015184820360208601526110748282611010565b9150506040830151848203604086015261108e8282611010565b91505060608301516110a360608601826110be565b5060808301516110b66080860182611001565b509392505050565b61100a8161052e565b60208082528101610f8c8184610f93565b60208082528101610f8c8184611048565b60208101610e7982846110be565b60a0810161110582886110be565b81810360208301526111178187611010565b9050818103604083015261112b8186611010565b905061113a60608301856110be565b6111476080830184611001565b9695505050505050565b60405181810167ffffffffffffffff8111828210171561117057600080fd5b604052919050565b600067ffffffffffffffff82111561118f57600080fd5b506020601f91909101601f19160190565b60200190565b5190565b90815260200190565b151590565b82818337506000910152565b60005b838110156111df5781810151838201526020016111c7565b838111156111ee576000848401525b50505050565b601f01601f191690565b611207816111b3565b8114610e5157600080fd5b6112078161052e56fea365627a7a723158205a558535971137533a0692df266b7e3b35ace9836372235e9d289c91a2a4b4656c6578706572696d656e74616cf564736f6c63430005100040",
  "source": "pragma solidity ^0.5.0;\n\npragma experimental ABIEncoderV2;\n\ncontract Notes {\n\n  uint public noteCount = 0;\n\n  struct Note {\n    uint id;\n    string title;\n    string content;\n    uint256 timestamp;\n    bool publicNote;\n  }\n\n  Note[] public allnotes;\n  mapping(uint => Note) public listNotes;\n\n  constructor() public {\n    createNote(\"Title\", \"Content\", true);\n  }\n\n  event NoteCreated(\n    uint id,\n    string title,\n    string content,\n    uint256 timestamp,\n    bool publicNote\n  );\n\n  event NoteDeleted(\n    uint id\n  );\n\n  function createNote(string memory _title, string memory _content, bool _publicNote) public {\n    noteCount ++;\n    Note memory newNote = Note(noteCount, _title, _content, now, _publicNote);\n    listNotes[noteCount] = newNote;\n    allnotes.push(newNote);\n    emit NoteCreated(noteCount, _title, _content, now, _publicNote);\n  }\n\n  function deleteNote(uint256 id) public {\n    for (uint256 i = id - 1; i < noteCount - 1; i++) {\n        allnotes[i] = allnotes[i + 1];\n        listNotes[i] = allnotes[i + 1];\n    }\n    allnotes.pop();\n    delete listNotes[noteCount - 1];\n    noteCount--;\n    emit NoteDeleted(id);\n  }\n\n  function getAllNotes() external view returns (Note[] memory) {\n    return allnotes;\n  }\n\n  function getNotes(uint id) external view returns (Note memory) {\n    return listNotes[id];\n  }\n\n  function getPublicNotes() external view returns (Note[] memory) {\n    uint256 publicCount = 0;\n\n    for (uint256 i = 0; i < allnotes.length; i++) {\n        if (allnotes[i].publicNote == true) {\n            publicCount++;\n        }\n    }\n\n    Note[] memory publicNotes = new Note[](publicCount);\n    uint256 index = 0;\n\n    for (uint256 i = 0; i < allnotes.length; i++) {\n        if (allnotes[i].publicNote == true) {\n            publicNotes[index] = allnotes[i];\n            index++;\n        }\n    }\n\n    return publicNotes;\n}\n\n}\n",
  "sourcePath": "C:\\Users\\Ishika\\Documents\\bct-ia-noteapp\\contracts\\Notes.sol",
  "compiler": {
    "name": "solc",
    "version": "0.5.16+commit.9c3226ce.Emscripten.clang"
  },
  "schemaVersion": "3.4.15",
  "updatedAt": "2023-08-13T14:52:28.803Z",
  "networkType": "ethereum",
  "devdoc": {
    "methods": {}
  },
  "userdoc": {
    "methods": {}
  }
}