{
  "contractName": "Notes",
  "abi": [
    {
      "constant": true,
      "inputs": [],
      "name": "userCount",
      "outputs": [
        {
          "name": "",
          "type": "uint256"
        }
      ],
      "payable": false,
      "stateMutability": "view",
      "type": "function",
      "signature": "0x07973ccf"
    },
    {
      "constant": true,
      "inputs": [],
      "name": "noteCount",
      "outputs": [
        {
          "name": "",
          "type": "uint256"
        }
      ],
      "payable": false,
      "stateMutability": "view",
      "type": "function",
      "signature": "0x317a4c76"
    },
    {
      "constant": true,
      "inputs": [
        {
          "name": "",
          "type": "uint256"
        }
      ],
      "name": "allnotes",
      "outputs": [
        {
          "name": "id",
          "type": "uint256"
        },
        {
          "name": "title",
          "type": "string"
        },
        {
          "name": "content",
          "type": "string"
        },
        {
          "name": "timestamp",
          "type": "uint256"
        },
        {
          "name": "publicNote",
          "type": "bool"
        },
        {
          "components": [
            {
              "name": "id",
              "type": "uint256"
            },
            {
              "name": "username",
              "type": "string"
            },
            {
              "name": "password",
              "type": "string"
            }
          ],
          "name": "user",
          "type": "tuple"
        }
      ],
      "payable": false,
      "stateMutability": "view",
      "type": "function",
      "signature": "0x4de8e1d0"
    },
    {
      "constant": true,
      "inputs": [
        {
          "name": "",
          "type": "uint256"
        }
      ],
      "name": "allUsers",
      "outputs": [
        {
          "name": "id",
          "type": "uint256"
        },
        {
          "name": "username",
          "type": "string"
        },
        {
          "name": "password",
          "type": "string"
        }
      ],
      "payable": false,
      "stateMutability": "view",
      "type": "function",
      "signature": "0xa2bdedf4"
    },
    {
      "constant": true,
      "inputs": [
        {
          "name": "",
          "type": "uint256"
        }
      ],
      "name": "listNotes",
      "outputs": [
        {
          "name": "id",
          "type": "uint256"
        },
        {
          "name": "title",
          "type": "string"
        },
        {
          "name": "content",
          "type": "string"
        },
        {
          "name": "timestamp",
          "type": "uint256"
        },
        {
          "name": "publicNote",
          "type": "bool"
        },
        {
          "components": [
            {
              "name": "id",
              "type": "uint256"
            },
            {
              "name": "username",
              "type": "string"
            },
            {
              "name": "password",
              "type": "string"
            }
          ],
          "name": "user",
          "type": "tuple"
        }
      ],
      "payable": false,
      "stateMutability": "view",
      "type": "function",
      "signature": "0xe10be180"
    },
    {
      "anonymous": false,
      "inputs": [
        {
          "indexed": false,
          "name": "id",
          "type": "uint256"
        },
        {
          "indexed": false,
          "name": "title",
          "type": "string"
        },
        {
          "indexed": false,
          "name": "content",
          "type": "string"
        },
        {
          "indexed": false,
          "name": "timestamp",
          "type": "uint256"
        },
        {
          "indexed": false,
          "name": "publicNote",
          "type": "bool"
        },
        {
          "components": [
            {
              "name": "id",
              "type": "uint256"
            },
            {
              "name": "username",
              "type": "string"
            },
            {
              "name": "password",
              "type": "string"
            }
          ],
          "indexed": false,
          "name": "user",
          "type": "tuple"
        }
      ],
      "name": "NoteCreated",
      "type": "event",
      "signature": "0x7d3d3a9e04175494654f3ff3de6ec6112aa9c8cb3d111520c3e1420615d7b0aa"
    },
    {
      "anonymous": false,
      "inputs": [
        {
          "indexed": false,
          "name": "id",
          "type": "uint256"
        }
      ],
      "name": "NoteDeleted",
      "type": "event",
      "signature": "0x89af6ba62ab348dc535a3187c267090f834c868a3820cd552a7110c3dc3eedb8"
    },
    {
      "anonymous": false,
      "inputs": [
        {
          "indexed": false,
          "name": "id",
          "type": "uint256"
        },
        {
          "indexed": false,
          "name": "username",
          "type": "string"
        }
      ],
      "name": "UserCreated",
      "type": "event",
      "signature": "0xee305ea110dac8054a0415771cedeb3372a69ef1c3916abb2f5e1b3658d77c0e"
    },
    {
      "constant": false,
      "inputs": [
        {
          "name": "_username",
          "type": "string"
        },
        {
          "name": "_password",
          "type": "string"
        }
      ],
      "name": "createUser",
      "outputs": [],
      "payable": false,
      "stateMutability": "nonpayable",
      "type": "function",
      "signature": "0x87b162b5"
    },
    {
      "constant": true,
      "inputs": [
        {
          "name": "_email",
          "type": "string"
        }
      ],
      "name": "getUserIdByEmail",
      "outputs": [
        {
          "name": "",
          "type": "uint256"
        }
      ],
      "payable": false,
      "stateMutability": "view",
      "type": "function",
      "signature": "0xc3fa505c"
    },
    {
      "constant": false,
      "inputs": [
        {
          "name": "_title",
          "type": "string"
        },
        {
          "name": "_content",
          "type": "string"
        },
        {
          "name": "_publicNote",
          "type": "bool"
        },
        {
          "name": "_userId",
          "type": "uint256"
        }
      ],
      "name": "createNote",
      "outputs": [],
      "payable": false,
      "stateMutability": "nonpayable",
      "type": "function",
      "signature": "0xeea9099e"
    },
    {
      "constant": false,
      "inputs": [
        {
          "name": "id",
          "type": "uint256"
        }
      ],
      "name": "deleteNote",
      "outputs": [],
      "payable": false,
      "stateMutability": "nonpayable",
      "type": "function",
      "signature": "0xc47177f4"
    },
    {
      "constant": true,
      "inputs": [
        {
          "name": "_userId",
          "type": "uint256"
        }
      ],
      "name": "getUserNotes",
      "outputs": [
        {
          "components": [
            {
              "name": "id",
              "type": "uint256"
            },
            {
              "name": "title",
              "type": "string"
            },
            {
              "name": "content",
              "type": "string"
            },
            {
              "name": "timestamp",
              "type": "uint256"
            },
            {
              "name": "publicNote",
              "type": "bool"
            },
            {
              "components": [
                {
                  "name": "id",
                  "type": "uint256"
                },
                {
                  "name": "username",
                  "type": "string"
                },
                {
                  "name": "password",
                  "type": "string"
                }
              ],
              "name": "user",
              "type": "tuple"
            }
          ],
          "name": "",
          "type": "tuple[]"
        }
      ],
      "payable": false,
      "stateMutability": "view",
      "type": "function",
      "signature": "0xa4a5acce"
    },
    {
      "constant": true,
      "inputs": [],
      "name": "getAllUsers",
      "outputs": [
        {
          "components": [
            {
              "name": "id",
              "type": "uint256"
            },
            {
              "name": "username",
              "type": "string"
            },
            {
              "name": "password",
              "type": "string"
            }
          ],
          "name": "",
          "type": "tuple[]"
        }
      ],
      "payable": false,
      "stateMutability": "view",
      "type": "function",
      "signature": "0xe2842d79"
    },
    {
      "constant": true,
      "inputs": [],
      "name": "getAllNotes",
      "outputs": [
        {
          "components": [
            {
              "name": "id",
              "type": "uint256"
            },
            {
              "name": "title",
              "type": "string"
            },
            {
              "name": "content",
              "type": "string"
            },
            {
              "name": "timestamp",
              "type": "uint256"
            },
            {
              "name": "publicNote",
              "type": "bool"
            },
            {
              "components": [
                {
                  "name": "id",
                  "type": "uint256"
                },
                {
                  "name": "username",
                  "type": "string"
                },
                {
                  "name": "password",
                  "type": "string"
                }
              ],
              "name": "user",
              "type": "tuple"
            }
          ],
          "name": "",
          "type": "tuple[]"
        }
      ],
      "payable": false,
      "stateMutability": "view",
      "type": "function",
      "signature": "0xde8f430c"
    },
    {
      "constant": true,
      "inputs": [
        {
          "name": "id",
          "type": "uint256"
        }
      ],
      "name": "getNotes",
      "outputs": [
        {
          "components": [
            {
              "name": "id",
              "type": "uint256"
            },
            {
              "name": "title",
              "type": "string"
            },
            {
              "name": "content",
              "type": "string"
            },
            {
              "name": "timestamp",
              "type": "uint256"
            },
            {
              "name": "publicNote",
              "type": "bool"
            },
            {
              "components": [
                {
                  "name": "id",
                  "type": "uint256"
                },
                {
                  "name": "username",
                  "type": "string"
                },
                {
                  "name": "password",
                  "type": "string"
                }
              ],
              "name": "user",
              "type": "tuple"
            }
          ],
          "name": "",
          "type": "tuple"
        }
      ],
      "payable": false,
      "stateMutability": "view",
      "type": "function",
      "signature": "0xc9b9307a"
    },
    {
      "constant": true,
      "inputs": [
        {
          "name": "_userId",
          "type": "uint256"
        }
      ],
      "name": "getUsers",
      "outputs": [
        {
          "name": "",
          "type": "uint256"
        },
        {
          "name": "",
          "type": "string"
        },
        {
          "name": "",
          "type": "string"
        }
      ],
      "payable": false,
      "stateMutability": "view",
      "type": "function",
      "signature": "0x5d73ab9a"
    },
    {
      "constant": true,
      "inputs": [],
      "name": "getPublicNotes",
      "outputs": [
        {
          "components": [
            {
              "name": "id",
              "type": "uint256"
            },
            {
              "name": "title",
              "type": "string"
            },
            {
              "name": "content",
              "type": "string"
            },
            {
              "name": "timestamp",
              "type": "uint256"
            },
            {
              "name": "publicNote",
              "type": "bool"
            },
            {
              "components": [
                {
                  "name": "id",
                  "type": "uint256"
                },
                {
                  "name": "username",
                  "type": "string"
                },
                {
                  "name": "password",
                  "type": "string"
                }
              ],
              "name": "user",
              "type": "tuple"
            }
          ],
          "name": "",
          "type": "tuple[]"
        }
      ],
      "payable": false,
      "stateMutability": "view",
      "type": "function",
      "signature": "0x664dbcdb"
    }
  ],
  "bytecode": "0x608060405260008055600060015534801561001957600080fd5b506128b4806100296000396000f3fe6080604052600436106100da5763ffffffff7c010000000000000000000000000000000000000000000000000000000060003504166307973ccf81146100df578063317a4c761461010a5780634de8e1d01461011f5780635d73ab9a14610151578063664dbcdb1461018057806387b162b5146101a2578063a2bdedf4146101c4578063a4a5acce146101e4578063c3fa505c14610204578063c47177f414610224578063c9b9307a14610244578063de8f430c14610271578063e10be18014610286578063e2842d79146102a6578063eea9099e146102c8575b600080fd5b3480156100eb57600080fd5b506100f46102e8565b6040516101019190612706565b60405180910390f35b34801561011657600080fd5b506100f46102ee565b34801561012b57600080fd5b5061013f61013a36600461248b565b6102f4565b60405161010196959493929190612768565b34801561015d57600080fd5b5061017161016c36600461248b565b61059d565b60405161010193929190612734565b34801561018c57600080fd5b50610195610783565b60405161010191906126bd565b3480156101ae57600080fd5b506101c26101bd366004612392565b610b45565b005b3480156101d057600080fd5b506101716101df36600461248b565b610cac565b3480156101f057600080fd5b506101956101ff36600461248b565b610e08565b34801561021057600080fd5b506100f461021f366004612355565b6111c2565b34801561023057600080fd5b506101c261023f36600461248b565b61122a565b34801561025057600080fd5b5061026461025f36600461248b565b6115a8565b60405161010191906126f5565b34801561027d57600080fd5b50610195611873565b34801561029257600080fd5b5061013f6102a136600461248b565b611b71565b3480156102b257600080fd5b506102bb611be3565b60405161010191906126ce565b3480156102d457600080fd5b506101c26102e33660046123fb565b611d78565b60015481565b60005481565b600380548290811061030257fe5b9060005260206000209060080201600091509050806000015490806001018054600181600116156101000203166002900480601f0160208091040260200160405190810160405280929190818152602001828054600181600116156101000203166002900480156103b45780601f10610389576101008083540402835291602001916103b4565b820191906000526020600020905b81548152906001019060200180831161039757829003601f168201915b50505060028085018054604080516020601f60001961010060018716150201909416959095049283018590048502810185019091528181529596959450909250908301828280156104465780601f1061041b57610100808354040283529160200191610446565b820191906000526020600020905b81548152906001019060200180831161042957829003601f168201915b50505050600383015460048401546040805160608101825260058701805482526006880180548451602060026101006001851615026000190190931692909204601f81018390048302820183019096528581529899969860ff909616975092949193838601938301828280156104fd5780601f106104d2576101008083540402835291602001916104fd565b820191906000526020600020905b8154815290600101906020018083116104e057829003601f168201915b5050509183525050600282810180546040805160206001841615610100026000190190931694909404601f8101839004830285018301909152808452938101939083018282801561058f5780601f106105645761010080835404028352916020019161058f565b820191906000526020600020905b81548152906001019060200180831161057257829003601f168201915b505050505081525050905086565b60006060806000841180156105b457506001548411155b15156105f5576040517f08c379a00000000000000000000000000000000000000000000000000000000081526004016105ec906126df565b60405180910390fd5b6105fd61212d565b60028054600019870190811061060f57fe5b90600052602060002090600302016060604051908101604052908160008201548152602001600182018054600181600116156101000203166002900480601f0160208091040260200160405190810160405280929190818152602001828054600181600116156101000203166002900480156106cc5780601f106106a1576101008083540402835291602001916106cc565b820191906000526020600020905b8154815290600101906020018083116106af57829003601f168201915b5050509183525050600282810180546040805160206001841615610100026000190190931694909404601f8101839004830285018301909152808452938101939083018282801561075e5780601f106107335761010080835404028352916020019161075e565b820191906000526020600020905b81548152906001019060200180831161074157829003601f168201915b5050509190925250508151602083015160409093015190989297509550909350505050565b60606000805b6003548110156107d15760038054829081106107a157fe5b600091825260209091206004600890920201015460ff161515600114156107c9576001909101905b600101610789565b5060608160405190808252806020026020018201604052801561080e57816020015b6107fb61214f565b8152602001906001900390816107f35790505b5090506000805b600354811015610b3b57600380548290811061082d57fe5b600091825260209091206004600890920201015460ff16151560011415610b3357600380548290811061085c57fe5b906000526020600020906008020160c0604051908101604052908160008201548152602001600182018054600181600116156101000203166002900480601f0160208091040260200160405190810160405280929190818152602001828054600181600116156101000203166002900480156109195780601f106108ee57610100808354040283529160200191610919565b820191906000526020600020905b8154815290600101906020018083116108fc57829003601f168201915b5050509183525050600282810180546040805160206001841615610100026000190190931694909404601f810183900483028501830190915280845293810193908301828280156109ab5780601f10610980576101008083540402835291602001916109ab565b820191906000526020600020905b81548152906001019060200180831161098e57829003601f168201915b50505091835250506003820154602080830191909152600483015460ff1615156040808401919091528051606080820183526005860180548352600687018054855160026101006001841615026000190190921691909104601f81018890048802820188019096528581529290960195929490938582019391830182828015610a755780601f10610a4a57610100808354040283529160200191610a75565b820191906000526020600020905b815481529060010190602001808311610a5857829003601f168201915b5050509183525050600282810180546040805160206001841615610100026000190190931694909404601f81018390048302850183019091528084529381019390830182828015610b075780601f10610adc57610100808354040283529160200191610b07565b820191906000526020600020905b815481529060010190602001808311610aea57829003601f168201915b505050505081525050815250508383815181101515610b2257fe5b602090810290910101526001909101905b600101610815565b5090925050505b90565b6001805481019055610b5561212d565b5060408051606081018252600180548252602080830186815293830185905260028054928301808255600091909152835160039093027f405787fa12a823e0f2b7631cc41b3ba8828b3321ca811111fa75cd3aa3bb5ace81019384559451805194959194869493610bea937f405787fa12a823e0f2b7631cc41b3ba8828b3321ca811111fa75cd3aa3bb5acf0192019061218e565b5060408201518051610c0691600284019160209091019061218e565b505050506001546005846040518082805190602001908083835b60208310610c3f5780518252601f199092019160209182019101610c20565b51815160209384036101000a60001901801990921691161790529201948552506040519384900301832093909355506001547fee305ea110dac8054a0415771cedeb3372a69ef1c3916abb2f5e1b3658d77c0e9250610c9f918690612714565b60405180910390a1505050565b6002805482908110610cba57fe5b9060005260206000209060030201600091509050806000015490806001018054600181600116156101000203166002900480601f016020809104026020016040519081016040528092919081815260200182805460018160011615610100020316600290048015610d6c5780601f10610d4157610100808354040283529160200191610d6c565b820191906000526020600020905b815481529060010190602001808311610d4f57829003601f168201915b50505060028085018054604080516020601f6000196101006001871615020190941695909504928301859004850281018501909152818152959695945090925090830182828015610dfe5780601f10610dd357610100808354040283529160200191610dfe565b820191906000526020600020905b815481529060010190602001808311610de157829003601f168201915b5050505050905083565b60606000805b600354811015610e525783600382815481101515610e2857fe5b9060005260206000209060080201600501600001541415610e4a576001909101905b600101610e0e565b50606081604051908082528060200260200182016040528015610e8f57816020015b610e7c61214f565b815260200190600190039081610e745790505b5090506000805b6003548110156111b85785600382815481101515610eb057fe5b90600052602060002090600802016005016000015414156111b0576003805482908110610ed957fe5b906000526020600020906008020160c0604051908101604052908160008201548152602001600182018054600181600116156101000203166002900480601f016020809104026020016040519081016040528092919081815260200182805460018160011615610100020316600290048015610f965780601f10610f6b57610100808354040283529160200191610f96565b820191906000526020600020905b815481529060010190602001808311610f7957829003601f168201915b5050509183525050600282810180546040805160206001841615610100026000190190931694909404601f810183900483028501830190915280845293810193908301828280156110285780601f10610ffd57610100808354040283529160200191611028565b820191906000526020600020905b81548152906001019060200180831161100b57829003601f168201915b50505091835250506003820154602080830191909152600483015460ff1615156040808401919091528051606080820183526005860180548352600687018054855160026101006001841615026000190190921691909104601f810188900488028201880190965285815292909601959294909385820193918301828280156110f25780601f106110c7576101008083540402835291602001916110f2565b820191906000526020600020905b8154815290600101906020018083116110d557829003601f168201915b5050509183525050600282810180546040805160206001841615610100026000190190931694909404601f810183900483028501830190915280845293810193908301828280156111845780601f1061115957610100808354040283529160200191611184565b820191906000526020600020905b81548152906001019060200180831161116757829003601f168201915b50505050508152505081525050838381518110151561119f57fe5b602090810290910101526001909101905b600101610e96565b5090949350505050565b60006005826040518082805190602001908083835b602083106111f65780518252601f1990920191602091820191016111d7565b51815160209384036101000a6000190180199092169116179052920194855250604051938490030190922054949350505050565b60001981015b60016000540381101561147557600380546001830190811061124e57fe5b906000526020600020906008020160038281548110151561126b57fe5b906000526020600020906008020160008201548160000155600182018160010190805460018160011615610100020316600290046112aa92919061220c565b50600282810180546112cf92848101929160001961010060018316150201160461220c565b5060038281015490820155600480830154908201805460ff191660ff9092161515919091179055600580830180549183019182556006808501805492939261132d92860191906002610100600183161502600019019091160461220c565b506002828101805461135292848101929160001961010060018316150201160461220c565b50505090505060038160010181548110151561136a57fe5b90600052602060002090600802016004600083815260200190815260200160002060008201548160000155600182018160010190805460018160011615610100020316600290046113bc92919061220c565b50600282810180546113e192848101929160001961010060018316150201160461220c565b5060038281015490820155600480830154908201805460ff191660ff9092161515919091179055600580830180549183019182556006808501805492939261143f92860191906002610100600183161502600019019091160461220c565b506002828101805461146492848101929160001961010060018316150201160461220c565b505060019093019250611230915050565b506003805480151561148357fe5b600082815260208120600860001990930192830201818155906114a96001830182612281565b6114b7600283016000612281565b60006003830181905560048301805460ff1916905560058301818155906114e16006850182612281565b6114ef600283016000612281565b50505091555060008054600019018152600460205260408120818155906115196001830182612281565b611527600283016000612281565b60006003830181905560048301805460ff1916905560058301818155906115516006850182612281565b61155f600283016000612281565b50506000805460001901905550506040517f89af6ba62ab348dc535a3187c267090f834c868a3820cd552a7110c3dc3eedb89061159d908390612706565b60405180910390a150565b6115b061214f565b6004600083815260200190815260200160002060c0604051908101604052908160008201548152602001600182018054600181600116156101000203166002900480601f0160208091040260200160405190810160405280929190818152602001828054600181600116156101000203166002900480156116725780601f1061164757610100808354040283529160200191611672565b820191906000526020600020905b81548152906001019060200180831161165557829003601f168201915b5050509183525050600282810180546040805160206001841615610100026000190190931694909404601f810183900483028501830190915280845293810193908301828280156117045780601f106116d957610100808354040283529160200191611704565b820191906000526020600020905b8154815290600101906020018083116116e757829003601f168201915b50505091835250506003820154602080830191909152600483015460ff1615156040808401919091528051606080820183526005860180548352600687018054855160026101006001841615026000190190921691909104601f810188900488028201880190965285815292909601959294909385820193918301828280156117ce5780601f106117a3576101008083540402835291602001916117ce565b820191906000526020600020905b8154815290600101906020018083116117b157829003601f168201915b5050509183525050600282810180546040805160206001841615610100026000190190931694909404601f810183900483028501830190915280845293810193908301828280156118605780601f1061183557610100808354040283529160200191611860565b820191906000526020600020905b81548152906001019060200180831161184357829003601f168201915b5050509190925250505090525092915050565b60606003805480602002602001604051908101604052809291908181526020016000905b82821015611b68578382906000526020600020906008020160c0604051908101604052908160008201548152602001600182018054600181600116156101000203166002900480601f01602080910402602001604051908101604052809291908181526020018280546001816001161561010002031660029004801561195e5780601f106119335761010080835404028352916020019161195e565b820191906000526020600020905b81548152906001019060200180831161194157829003601f168201915b5050509183525050600282810180546040805160206001841615610100026000190190931694909404601f810183900483028501830190915280845293810193908301828280156119f05780601f106119c5576101008083540402835291602001916119f0565b820191906000526020600020905b8154815290600101906020018083116119d357829003601f168201915b50505091835250506003820154602080830191909152600483015460ff1615156040808401919091528051606080820183526005860180548352600687018054855160026101006001841615026000190190921691909104601f81018890048802820188019096528581529290960195929490938582019391830182828015611aba5780601f10611a8f57610100808354040283529160200191611aba565b820191906000526020600020905b815481529060010190602001808311611a9d57829003601f168201915b5050509183525050600282810180546040805160206001841615610100026000190190931694909404601f81018390048302850183019091528084529381019390830182828015611b4c5780601f10611b2157610100808354040283529160200191611b4c565b820191906000526020600020905b815481529060010190602001808311611b2f57829003601f168201915b5050505050815250508152505081526020019060010190611897565b50505050905090565b6004602090815260009182526040918290208054600180830180548651600293821615610100026000190190911692909204601f8101869004860283018601909652858252919492939092908301828280156103b45780601f10610389576101008083540402835291602001916103b4565b60606002805480602002602001604051908101604052809291908181526020016000905b82821015611b6857838290600052602060002090600302016060604051908101604052908160008201548152602001600182018054600181600116156101000203166002900480601f016020809104026020016040519081016040528092919081815260200182805460018160011615610100020316600290048015611cce5780601f10611ca357610100808354040283529160200191611cce565b820191906000526020600020905b815481529060010190602001808311611cb157829003601f168201915b5050509183525050600282810180546040805160206001841615610100026000190190931694909404601f81018390048302850183019091528084529381019390830182828015611d605780601f10611d3557610100808354040283529160200191611d60565b820191906000526020600020905b815481529060010190602001808311611d4357829003601f168201915b50505050508152505081526020019060010190611c07565b600080546001019055611d8961212d565b600280546000198401908110611d9b57fe5b90600052602060002090600302016060604051908101604052908160008201548152602001600182018054600181600116156101000203166002900480601f016020809104026020016040519081016040528092919081815260200182805460018160011615610100020316600290048015611e585780601f10611e2d57610100808354040283529160200191611e58565b820191906000526020600020905b815481529060010190602001808311611e3b57829003601f168201915b5050509183525050600282810180546040805160206001841615610100026000190190931694909404601f81018390048302850183019091528084529381019390830182828015611eea5780601f10611ebf57610100808354040283529160200191611eea565b820191906000526020600020905b815481529060010190602001808311611ecd57829003601f168201915b5050505050815250509050611efd61214f565b506040805160c0810182526000805480835260208084018a81528486018a9052426060860152881515608086015260a085018790529183526004815293909120825181559051805192938493611f59926001850192019061218e565b5060408201518051611f7591600284019160209091019061218e565b5060608201516003820155608082015160048201805460ff191691151591909117905560a08201518051600583019081556020808301518051611fbe926006870192019061218e565b5060408201518051611fda91600284019160209091019061218e565b50506003805460018101808355600092909252855160089091027fc2575a0e9e593c00f959f8c92f12db2869c3395a3b0502d05e2516446f71f85b8101918255602080880151805194975088965092945061205b937fc2575a0e9e593c00f959f8c92f12db2869c3395a3b0502d05e2516446f71f85c90920192019061218e565b506040820151805161207791600284019160209091019061218e565b5060608201516003820155608082015160048201805460ff191691151591909117905560a082015180516005830190815560208083015180516120c0926006870192019061218e565b50604082015180516120dc91600284019160209091019061218e565b5050505050507f7d3d3a9e04175494654f3ff3de6ec6112aa9c8cb3d111520c3e1420615d7b0aa600054878742888760405161211d96959493929190612768565b60405180910390a1505050505050565b6060604051908101604052806000815260200160608152602001606081525090565b610100604051908101604052806000815260200160608152602001606081526020016000815260200160001515815260200161218961212d565b905290565b828054600181600116156101000203166002900490600052602060002090601f016020900481019282601f106121cf57805160ff19168380011785556121fc565b828001600101855582156121fc579182015b828111156121fc5782518255916020019190600101906121e1565b506122089291506122c8565b5090565b828054600181600116156101000203166002900490600052602060002090601f016020900481019282601f1061224557805485556121fc565b828001600101855582156121fc57600052602060002091601f016020900482015b828111156121fc578254825591600101919060010190612266565b50805460018160011615610100020316600290046000825580601f106122a757506122c5565b601f0160209004906000526020600020908101906122c591906122c8565b50565b610b4291905b8082111561220857600081556001016122ce565b60006122ee823561282f565b9392505050565b6000601f8201831361230657600080fd5b8135612319612314826127fd565b6127d6565b9150808252602083016020830185838301111561233557600080fd5b612340838284612834565b50505092915050565b60006122ee8235610b42565b60006020828403121561236757600080fd5b813567ffffffffffffffff81111561237e57600080fd5b61238a848285016122f5565b949350505050565b600080604083850312156123a557600080fd5b823567ffffffffffffffff8111156123bc57600080fd5b6123c8858286016122f5565b925050602083013567ffffffffffffffff8111156123e557600080fd5b6123f1858286016122f5565b9150509250929050565b6000806000806080858703121561241157600080fd5b843567ffffffffffffffff81111561242857600080fd5b612434878288016122f5565b945050602085013567ffffffffffffffff81111561245157600080fd5b61245d878288016122f5565b935050604061246e878288016122e2565b925050606061247f87828801612349565b91505092959194509250565b60006020828403121561249d57600080fd5b600061238a8484612349565b60006124b48261282b565b808452602084019350836020820285016124cd85612825565b60005b848110156125045783830388526124e88383516125df565b92506124f382612825565b6020989098019791506001016124d0565b50909695505050505050565b600061251b8261282b565b8084526020840193508360208202850161253485612825565b60005b8481101561250457838303885261254f83835161266e565b925061255a82612825565b602098909801979150600101612537565b6125748161282f565b82525050565b60006125858261282b565b808452612599816020860160208601612840565b6125a281612870565b9093016020019392505050565b600f81527f496e76616c696420757365722049440000000000000000000000000000000000602082015260400190565b805160009060c08401906125f385826126b4565b506020830151848203602086015261260b828261257a565b91505060408301518482036040860152612625828261257a565b915050606083015161263a60608601826126b4565b50608083015161264d608086018261256b565b5060a083015184820360a0860152612665828261266e565b95945050505050565b8051600090606084019061268285826126b4565b506020830151848203602086015261269a828261257a565b91505060408301518482036040860152612665828261257a565b61257481610b42565b602080825281016122ee81846124a9565b602080825281016122ee8184612510565b602080825281016126ef816125af565b92915050565b602080825281016122ee81846125df565b602081016126ef82846126b4565b6040810161272282856126b4565b818103602083015261238a818461257a565b6060810161274282866126b4565b8181036020830152612754818561257a565b90508181036040830152612665818461257a565b60c0810161277682896126b4565b8181036020830152612788818861257a565b9050818103604083015261279c818761257a565b90506127ab60608301866126b4565b6127b8608083018561256b565b81810360a08301526127ca818461266e565b98975050505050505050565b60405181810167ffffffffffffffff811182821017156127f557600080fd5b604052919050565b600067ffffffffffffffff82111561281457600080fd5b506020601f91909101601f19160190565b60200190565b5190565b151590565b82818337506000910152565b60005b8381101561285b578181015183820152602001612843565b8381111561286a576000848401525b50505050565b601f01601f19169056fea265627a7a723058202e08b4b0183bc2fbe80bb36577744d1d910b230c6e136049de046cba1a480c5c6c6578706572696d656e74616cf50037",
  "source": "pragma solidity ^0.5.0;\r\n\r\npragma experimental ABIEncoderV2;\r\n\r\ncontract Notes {\r\n\r\n    uint public noteCount = 0;\r\n    uint public userCount = 0;\r\n\r\n    struct User {\r\n        uint id;\r\n        string username;\r\n        string password;\r\n    }\r\n\r\n    struct Note {\r\n        uint id;\r\n        string title;\r\n        string content;\r\n        uint256 timestamp;\r\n        bool publicNote;\r\n        User user;\r\n    }\r\n\r\n    User[] public allUsers;\r\n    Note[] public allnotes;\r\n    mapping(uint => Note) public listNotes;\r\n\r\n    event NoteCreated(\r\n        uint id,\r\n        string title,\r\n        string content,\r\n        uint256 timestamp,\r\n        bool publicNote,\r\n        User user\r\n    );\r\n\r\n    event NoteDeleted(uint id);\r\n    event UserCreated(uint id, string username);\r\n\r\n    mapping(string => uint) private emailToUserId;\r\n\r\n    function createUser(string memory _username, string memory _password) public {\r\n        userCount++;\r\n        User memory newUser = User(userCount, _username, _password);\r\n        allUsers.push(newUser);\r\n        emailToUserId[_username] = userCount; // Store the mapping\r\n        emit UserCreated(userCount, _username);\r\n    }\r\n\r\n    function getUserIdByEmail(string memory _email) public view returns (uint) {\r\n        return emailToUserId[_email];\r\n    }\r\n\r\n\r\n    function createNote(\r\n        string memory _title,\r\n        string memory _content,\r\n        bool _publicNote,\r\n        uint _userId\r\n    ) public {\r\n        noteCount++;\r\n        User memory noteUser = allUsers[_userId - 1];\r\n        Note memory newNote = Note(\r\n            noteCount,\r\n            _title,\r\n            _content,\r\n            now,\r\n            _publicNote,\r\n            noteUser\r\n        );\r\n        listNotes[noteCount] = newNote;\r\n        allnotes.push(newNote);\r\n        emit NoteCreated(\r\n            noteCount,\r\n            _title,\r\n            _content,\r\n            now,\r\n            _publicNote,\r\n            noteUser\r\n        );\r\n    }\r\n\r\n    \r\n\r\n    function deleteNote(uint256 id) public {\r\n        for (uint256 i = id - 1; i < noteCount - 1; i++) {\r\n            allnotes[i] = allnotes[i + 1];\r\n            listNotes[i] = allnotes[i + 1];\r\n        }\r\n        allnotes.pop();\r\n        delete listNotes[noteCount - 1];\r\n        noteCount--;\r\n        emit NoteDeleted(id);\r\n    }\r\n\r\n    function getUserNotes(uint _userId) external view returns (Note[] memory) {\r\n    uint256 userNoteCount = 0;\r\n\r\n    for (uint256 i = 0; i < allnotes.length; i++) {\r\n        if (allnotes[i].user.id == _userId) {\r\n            userNoteCount++;\r\n        }\r\n    }\r\n\r\n    Note[] memory notes = new Note[](userNoteCount);\r\n    uint256 index = 0;\r\n\r\n    for (uint256 i = 0; i < allnotes.length; i++) {\r\n        if (allnotes[i].user.id == _userId) {\r\n            notes[index] = allnotes[i];\r\n            index++;\r\n        }\r\n    }\r\n\r\n    return notes;\r\n}\r\n\r\n    function getAllUsers() external view returns (User[] memory) {\r\n        return allUsers;\r\n    }\r\n\r\n    function getAllNotes() external view returns (Note[] memory) {\r\n        return allnotes;\r\n    }\r\n\r\n    function getNotes(uint id) external view returns (Note memory) {\r\n        return listNotes[id];\r\n    }\r\n\r\n    function getUsers(uint _userId) external view returns (uint, string memory, string memory) {\r\n        require(_userId > 0 && _userId <= userCount, \"Invalid user ID\");\r\n        User memory user = allUsers[_userId - 1];\r\n        return (user.id, user.username, user.password);\r\n    }\r\n\r\n    function getPublicNotes() external view returns (Note[] memory) {\r\n        uint256 publicCount = 0;\r\n\r\n        for (uint256 i = 0; i < allnotes.length; i++) {\r\n            if (allnotes[i].publicNote == true) {\r\n                publicCount++;\r\n            }\r\n        }\r\n\r\n        Note[] memory publicNotes = new Note[](publicCount);\r\n        uint256 index = 0;\r\n\r\n        for (uint256 i = 0; i < allnotes.length; i++) {\r\n            if (allnotes[i].publicNote == true) {\r\n                publicNotes[index] = allnotes[i];\r\n                index++;\r\n            }\r\n        }\r\n\r\n        return publicNotes;\r\n    }\r\n}",
  "sourcePath": "C:/Users/Tanvi/Works/BCT/BCT-IA1/bct-ia-noteapp/contracts/Notes.sol",
  "compiler": {
    "name": "solc",
    "version": "0.5.0+commit.1d4f565a.Emscripten.clang"
  },
  "schemaVersion": "3.0.1",
  "updatedAt": "2023-08-18T12:13:14.093Z",
  "devdoc": {
    "methods": {}
  },
  "userdoc": {
    "methods": {}
  }
}